{
  "_format": "hh-sol-artifact-1",
  "contractName": "MyEpicNFT",
  "sourceName": "contracts/MyEpicNFT.sol",
  "abi": [
    {
      "inputs": [],
      "stateMutability": "nonpayable",
      "type": "constructor"
    },
    {
      "anonymous": false,
      "inputs": [
        {
          "indexed": true,
          "internalType": "address",
          "name": "owner",
          "type": "address"
        },
        {
          "indexed": true,
          "internalType": "address",
          "name": "approved",
          "type": "address"
        },
        {
          "indexed": true,
          "internalType": "uint256",
          "name": "tokenId",
          "type": "uint256"
        }
      ],
      "name": "Approval",
      "type": "event"
    },
    {
      "anonymous": false,
      "inputs": [
        {
          "indexed": true,
          "internalType": "address",
          "name": "owner",
          "type": "address"
        },
        {
          "indexed": true,
          "internalType": "address",
          "name": "operator",
          "type": "address"
        },
        {
          "indexed": false,
          "internalType": "bool",
          "name": "approved",
          "type": "bool"
        }
      ],
      "name": "ApprovalForAll",
      "type": "event"
    },
    {
      "anonymous": false,
      "inputs": [
        {
          "indexed": false,
          "internalType": "address",
          "name": "sender",
          "type": "address"
        },
        {
          "indexed": false,
          "internalType": "uint256",
          "name": "tokenId",
          "type": "uint256"
        },
        {
          "indexed": false,
          "internalType": "uint256",
          "name": "currentNum",
          "type": "uint256"
        }
      ],
      "name": "NewEpicNFTMinted",
      "type": "event"
    },
    {
      "anonymous": false,
      "inputs": [
        {
          "indexed": true,
          "internalType": "address",
          "name": "from",
          "type": "address"
        },
        {
          "indexed": true,
          "internalType": "address",
          "name": "to",
          "type": "address"
        },
        {
          "indexed": true,
          "internalType": "uint256",
          "name": "tokenId",
          "type": "uint256"
        }
      ],
      "name": "Transfer",
      "type": "event"
    },
    {
      "inputs": [],
      "name": "TOTAL_MINT_COUNT",
      "outputs": [
        {
          "internalType": "uint256",
          "name": "",
          "type": "uint256"
        }
      ],
      "stateMutability": "view",
      "type": "function"
    },
    {
      "inputs": [
        {
          "internalType": "address",
          "name": "to",
          "type": "address"
        },
        {
          "internalType": "uint256",
          "name": "tokenId",
          "type": "uint256"
        }
      ],
      "name": "approve",
      "outputs": [],
      "stateMutability": "nonpayable",
      "type": "function"
    },
    {
      "inputs": [
        {
          "internalType": "address",
          "name": "owner",
          "type": "address"
        }
      ],
      "name": "balanceOf",
      "outputs": [
        {
          "internalType": "uint256",
          "name": "",
          "type": "uint256"
        }
      ],
      "stateMutability": "view",
      "type": "function"
    },
    {
      "inputs": [
        {
          "internalType": "uint256",
          "name": "tokenId",
          "type": "uint256"
        }
      ],
      "name": "getApproved",
      "outputs": [
        {
          "internalType": "address",
          "name": "",
          "type": "address"
        }
      ],
      "stateMutability": "view",
      "type": "function"
    },
    {
      "inputs": [
        {
          "internalType": "address",
          "name": "owner",
          "type": "address"
        },
        {
          "internalType": "address",
          "name": "operator",
          "type": "address"
        }
      ],
      "name": "isApprovedForAll",
      "outputs": [
        {
          "internalType": "bool",
          "name": "",
          "type": "bool"
        }
      ],
      "stateMutability": "view",
      "type": "function"
    },
    {
      "inputs": [],
      "name": "makeAnEpicNFT",
      "outputs": [],
      "stateMutability": "nonpayable",
      "type": "function"
    },
    {
      "inputs": [],
      "name": "name",
      "outputs": [
        {
          "internalType": "string",
          "name": "",
          "type": "string"
        }
      ],
      "stateMutability": "view",
      "type": "function"
    },
    {
      "inputs": [
        {
          "internalType": "uint256",
          "name": "tokenId",
          "type": "uint256"
        }
      ],
      "name": "ownerOf",
      "outputs": [
        {
          "internalType": "address",
          "name": "",
          "type": "address"
        }
      ],
      "stateMutability": "view",
      "type": "function"
    },
    {
      "inputs": [
        {
          "internalType": "uint256",
          "name": "tokenId",
          "type": "uint256"
        }
      ],
      "name": "pickRandomFirstWord",
      "outputs": [
        {
          "internalType": "string",
          "name": "",
          "type": "string"
        }
      ],
      "stateMutability": "view",
      "type": "function"
    },
    {
      "inputs": [
        {
          "internalType": "uint256",
          "name": "tokenId",
          "type": "uint256"
        }
      ],
      "name": "pickRandomSecondWord",
      "outputs": [
        {
          "internalType": "string",
          "name": "",
          "type": "string"
        }
      ],
      "stateMutability": "view",
      "type": "function"
    },
    {
      "inputs": [
        {
          "internalType": "uint256",
          "name": "tokenId",
          "type": "uint256"
        }
      ],
      "name": "pickRandomThirdWord",
      "outputs": [
        {
          "internalType": "string",
          "name": "",
          "type": "string"
        }
      ],
      "stateMutability": "view",
      "type": "function"
    },
    {
      "inputs": [
        {
          "internalType": "address",
          "name": "from",
          "type": "address"
        },
        {
          "internalType": "address",
          "name": "to",
          "type": "address"
        },
        {
          "internalType": "uint256",
          "name": "tokenId",
          "type": "uint256"
        }
      ],
      "name": "safeTransferFrom",
      "outputs": [],
      "stateMutability": "nonpayable",
      "type": "function"
    },
    {
      "inputs": [
        {
          "internalType": "address",
          "name": "from",
          "type": "address"
        },
        {
          "internalType": "address",
          "name": "to",
          "type": "address"
        },
        {
          "internalType": "uint256",
          "name": "tokenId",
          "type": "uint256"
        },
        {
          "internalType": "bytes",
          "name": "data",
          "type": "bytes"
        }
      ],
      "name": "safeTransferFrom",
      "outputs": [],
      "stateMutability": "nonpayable",
      "type": "function"
    },
    {
      "inputs": [
        {
          "internalType": "address",
          "name": "operator",
          "type": "address"
        },
        {
          "internalType": "bool",
          "name": "approved",
          "type": "bool"
        }
      ],
      "name": "setApprovalForAll",
      "outputs": [],
      "stateMutability": "nonpayable",
      "type": "function"
    },
    {
      "inputs": [
        {
          "internalType": "bytes4",
          "name": "interfaceId",
          "type": "bytes4"
        }
      ],
      "name": "supportsInterface",
      "outputs": [
        {
          "internalType": "bool",
          "name": "",
          "type": "bool"
        }
      ],
      "stateMutability": "view",
      "type": "function"
    },
    {
      "inputs": [],
      "name": "symbol",
      "outputs": [
        {
          "internalType": "string",
          "name": "",
          "type": "string"
        }
      ],
      "stateMutability": "view",
      "type": "function"
    },
    {
      "inputs": [
        {
          "internalType": "uint256",
          "name": "tokenId",
          "type": "uint256"
        }
      ],
      "name": "tokenURI",
      "outputs": [
        {
          "internalType": "string",
          "name": "",
          "type": "string"
        }
      ],
      "stateMutability": "view",
      "type": "function"
    },
    {
      "inputs": [
        {
          "internalType": "address",
          "name": "from",
          "type": "address"
        },
        {
          "internalType": "address",
          "name": "to",
          "type": "address"
        },
        {
          "internalType": "uint256",
          "name": "tokenId",
          "type": "uint256"
        }
      ],
      "name": "transferFrom",
      "outputs": [],
      "stateMutability": "nonpayable",
      "type": "function"
    }
  ],
  "bytecode": "0x608060405260405180610160016040528061012f8152602001620046c161012f913960089081620000319190620009d0565b506040518060c001604052806040518060400160405280600681526020017f4f6c69766572000000000000000000000000000000000000000000000000000081525081526020016040518060400160405280600881526020017f4d7568616d6d656400000000000000000000000000000000000000000000000081525081526020016040518060400160405280600481526020017f4e6f61680000000000000000000000000000000000000000000000000000000081525081526020016040518060400160405280600581526020017f486172727900000000000000000000000000000000000000000000000000000081525081526020016040518060400160405280600481526020017f4a61636b0000000000000000000000000000000000000000000000000000000081525081526020016040518060400160405280600481526020017f4a6f686e000000000000000000000000000000000000000000000000000000008152508152506009906006620001af92919062000669565b506040518060c001604052806040518060400160405280600581526020017f6c696b657300000000000000000000000000000000000000000000000000000081525081526020016040518060400160405280600581526020017f686174657300000000000000000000000000000000000000000000000000000081525081526020016040518060400160405280600581526020017f6c6f76657300000000000000000000000000000000000000000000000000000081525081526020016040518060400160405280600581526020017f6d616b657300000000000000000000000000000000000000000000000000000081525081526020016040518060400160405280600781526020017f637265617465730000000000000000000000000000000000000000000000000081525081526020016040518060400160405280600681526020017f7772697465730000000000000000000000000000000000000000000000000000815250815250600a9060066200032d92919062000669565b506040518060c001604052806040518060400160405280600a81526020017f4a6176615363726970740000000000000000000000000000000000000000000081525081526020016040518060400160405280600a81526020017f547970655363726970740000000000000000000000000000000000000000000081525081526020016040518060400160405280600681526020017f507974686f6e000000000000000000000000000000000000000000000000000081525081526020016040518060400160405280600481526020017f4a6176610000000000000000000000000000000000000000000000000000000081525081526020016040518060400160405280600381526020017f504850000000000000000000000000000000000000000000000000000000000081525081526020016040518060400160405280600881526020017f536f6c6964697479000000000000000000000000000000000000000000000000815250815250600b906006620004ab92919062000669565b50348015620004b957600080fd5b506040518060400160405280600981526020017f5371756172654e465400000000000000000000000000000000000000000000008152506040518060400160405280600681526020017f53515541524500000000000000000000000000000000000000000000000000008152508160009081620005379190620009d0565b508060019081620005499190620009d0565b505050620005976040518060400160405280601881526020017f54686973206973206d79204e465420636f6e74726163742e00000000000000008152506200059d60201b620011281760201c565b62000b6a565b6200063d81604051602401620005b4919062000b46565b6040516020818303038152906040527f41304fac000000000000000000000000000000000000000000000000000000007bffffffffffffffffffffffffffffffffffffffffffffffffffffffff19166020820180517bffffffffffffffffffffffffffffffffffffffffffffffffffffffff83818316178352505050506200064060201b60201c565b50565b60008151905060006a636f6e736f6c652e6c6f679050602083016000808483855afa5050505050565b828054828255906000526020600020908101928215620006b6579160200282015b82811115620006b5578251829081620006a49190620009d0565b50916020019190600101906200068a565b5b509050620006c59190620006c9565b5090565b5b80821115620006ed5760008181620006e39190620006f1565b50600101620006ca565b5090565b508054620006ff90620007bf565b6000825580601f1062000713575062000734565b601f01602090049060005260206000209081019062000733919062000737565b5b50565b5b808211156200075257600081600090555060010162000738565b5090565b600081519050919050565b7f4e487b7100000000000000000000000000000000000000000000000000000000600052604160045260246000fd5b7f4e487b7100000000000000000000000000000000000000000000000000000000600052602260045260246000fd5b60006002820490506001821680620007d857607f821691505b602082108103620007ee57620007ed62000790565b5b50919050565b60008190508160005260206000209050919050565b60006020601f8301049050919050565b600082821b905092915050565b600060088302620008587fffffffffffffffffffffffffffffffffffffffffffffffffffffffffffffffff8262000819565b62000864868362000819565b95508019841693508086168417925050509392505050565b6000819050919050565b6000819050919050565b6000620008b1620008ab620008a5846200087c565b62000886565b6200087c565b9050919050565b6000819050919050565b620008cd8362000890565b620008e5620008dc82620008b8565b84845462000826565b825550505050565b600090565b620008fc620008ed565b62000909818484620008c2565b505050565b5b81811015620009315762000925600082620008f2565b6001810190506200090f565b5050565b601f82111562000980576200094a81620007f4565b620009558462000809565b8101602085101562000965578190505b6200097d620009748562000809565b8301826200090e565b50505b505050565b600082821c905092915050565b6000620009a56000198460080262000985565b1980831691505092915050565b6000620009c0838362000992565b9150826002028217905092915050565b620009db8262000756565b67ffffffffffffffff811115620009f757620009f662000761565b5b62000a038254620007bf565b62000a1082828562000935565b600060209050601f83116001811462000a48576000841562000a33578287015190505b62000a3f8582620009b2565b86555062000aaf565b601f19841662000a5886620007f4565b60005b8281101562000a825784890151825560018201915060208501945060208101905062000a5b565b8683101562000aa2578489015162000a9e601f89168262000992565b8355505b6001600288020188555050505b505050505050565b600082825260208201905092915050565b60005b8381101562000ae857808201518184015260208101905062000acb565b60008484015250505050565b6000601f19601f8301169050919050565b600062000b128262000756565b62000b1e818562000ab7565b935062000b3081856020860162000ac8565b62000b3b8162000af4565b840191505092915050565b6000602082019050818103600083015262000b62818462000b05565b905092915050565b613b478062000b7a6000396000f3fe608060405234801561001057600080fd5b50600436106101165760003560e01c806370a08231116100a2578063b88d4fde11610071578063b88d4fde14610305578063c575757a14610321578063c87b56dd14610351578063de9d132f14610381578063e985e9c51461038b57610116565b806370a082311461026b57806395d89b411461029b578063a22cb465146102b9578063b187301f146102d557610116565b806323b872dd116100e957806323b872dd146101b55780632de38d68146101d157806342842e0e1461020157806357dfbe391461021d5780636352211e1461023b57610116565b806301ffc9a71461011b57806306fdde031461014b578063081812fc14610169578063095ea7b314610199575b600080fd5b610135600480360381019061013091906123ee565b6103bb565b6040516101429190612436565b60405180910390f35b61015361049d565b60405161016091906124e1565b60405180910390f35b610183600480360381019061017e9190612539565b61052f565b60405161019091906125a7565b60405180910390f35b6101b360048036038101906101ae91906125ee565b610575565b005b6101cf60048036038101906101ca919061262e565b61068c565b005b6101eb60048036038101906101e69190612539565b6106ec565b6040516101f891906124e1565b60405180910390f35b61021b6004803603810190610216919061262e565b610862565b005b610225610882565b6040516102329190612690565b60405180910390f35b61025560048036038101906102509190612539565b610887565b60405161026291906125a7565b60405180910390f35b610285600480360381019061028091906126ab565b61090d565b6040516102929190612690565b60405180910390f35b6102a36109c4565b6040516102b091906124e1565b60405180910390f35b6102d360048036038101906102ce9190612704565b610a56565b005b6102ef60048036038101906102ea9190612539565b610a6c565b6040516102fc91906124e1565b60405180910390f35b61031f600480360381019061031a9190612879565b610b64565b005b61033b60048036038101906103369190612539565b610bc6565b60405161034891906124e1565b60405180910390f35b61036b60048036038101906103669190612539565b610cbe565b60405161037891906124e1565b60405180910390f35b610389610dd0565b005b6103a560048036038101906103a091906128fc565b611094565b6040516103b29190612436565b60405180910390f35b60007f80ac58cd000000000000000000000000000000000000000000000000000000007bffffffffffffffffffffffffffffffffffffffffffffffffffffffff1916827bffffffffffffffffffffffffffffffffffffffffffffffffffffffff1916148061048657507f5b5e139f000000000000000000000000000000000000000000000000000000007bffffffffffffffffffffffffffffffffffffffffffffffffffffffff1916827bffffffffffffffffffffffffffffffffffffffffffffffffffffffff1916145b806104965750610495826111c1565b5b9050919050565b6060600080546104ac9061296b565b80601f01602080910402602001604051908101604052809291908181526020018280546104d89061296b565b80156105255780601f106104fa57610100808354040283529160200191610525565b820191906000526020600020905b81548152906001019060200180831161050857829003601f168201915b5050505050905090565b600061053a8261122b565b6004600083815260200190815260200160002060009054906101000a900473ffffffffffffffffffffffffffffffffffffffff169050919050565b600061058082610887565b90508073ffffffffffffffffffffffffffffffffffffffff168373ffffffffffffffffffffffffffffffffffffffff16036105f0576040517f08c379a00000000000000000000000000000000000000000000000000000000081526004016105e790612a0e565b60405180910390fd5b8073ffffffffffffffffffffffffffffffffffffffff1661060f611276565b73ffffffffffffffffffffffffffffffffffffffff16148061063e575061063d81610638611276565b611094565b5b61067d576040517f08c379a000000000000000000000000000000000000000000000000000000000815260040161067490612aa0565b60405180910390fd5b610687838361127e565b505050565b61069d610697611276565b82611337565b6106dc576040517f08c379a00000000000000000000000000000000000000000000000000000000081526004016106d390612b32565b60405180910390fd5b6106e78383836113cc565b505050565b606060006107206106fc846116c5565b60405160200161070c9190612bda565b604051602081830303815290604052611793565b90506107616040518060400160405280600b81526020017f72616e6420736565643a20000000000000000000000000000000000000000000815250826117c6565b600980549050816107729190612c2b565b90506107b36040518060400160405280601181526020017f72616e6420666972737420776f72643a20000000000000000000000000000000815250826117c6565b600981815481106107c7576107c6612c5c565b5b9060005260206000200180546107dc9061296b565b80601f01602080910402602001604051908101604052809291908181526020018280546108089061296b565b80156108555780601f1061082a57610100808354040283529160200191610855565b820191906000526020600020905b81548152906001019060200180831161083857829003601f168201915b5050505050915050919050565b61087d83838360405180602001604052806000815250610b64565b505050565b603281565b60008061089383611862565b9050600073ffffffffffffffffffffffffffffffffffffffff168173ffffffffffffffffffffffffffffffffffffffff1603610904576040517f08c379a00000000000000000000000000000000000000000000000000000000081526004016108fb90612cd7565b60405180910390fd5b80915050919050565b60008073ffffffffffffffffffffffffffffffffffffffff168273ffffffffffffffffffffffffffffffffffffffff160361097d576040517f08c379a000000000000000000000000000000000000000000000000000000000815260040161097490612d69565b60405180910390fd5b600360008373ffffffffffffffffffffffffffffffffffffffff1673ffffffffffffffffffffffffffffffffffffffff168152602001908152602001600020549050919050565b6060600180546109d39061296b565b80601f01602080910402602001604051908101604052809291908181526020018280546109ff9061296b565b8015610a4c5780601f10610a2157610100808354040283529160200191610a4c565b820191906000526020600020905b815481529060010190602001808311610a2f57829003601f168201915b5050505050905090565b610a68610a61611276565b838361189f565b5050565b60606000610aa0610a7c846116c5565b604051602001610a8c9190612dd5565b604051602081830303815290604052611793565b9050600a8054905081610ab39190612c2b565b9050600a8181548110610ac957610ac8612c5c565b5b906000526020600020018054610ade9061296b565b80601f0160208091040260200160405190810160405280929190818152602001828054610b0a9061296b565b8015610b575780601f10610b2c57610100808354040283529160200191610b57565b820191906000526020600020905b815481529060010190602001808311610b3a57829003601f168201915b5050505050915050919050565b610b75610b6f611276565b83611337565b610bb4576040517f08c379a0000000000000000000000000000000000000000000000000000000008152600401610bab90612b32565b60405180910390fd5b610bc084848484611a0b565b50505050565b60606000610bfa610bd6846116c5565b604051602001610be69190612e43565b604051602081830303815290604052611793565b9050600b8054905081610c0d9190612c2b565b9050600b8181548110610c2357610c22612c5c565b5b906000526020600020018054610c389061296b565b80601f0160208091040260200160405190810160405280929190818152602001828054610c649061296b565b8015610cb15780601f10610c8657610100808354040283529160200191610cb1565b820191906000526020600020905b815481529060010190602001808311610c9457829003601f168201915b5050505050915050919050565b6060610cc98261122b565b6000600660008481526020019081526020016000208054610ce99061296b565b80601f0160208091040260200160405190810160405280929190818152602001828054610d159061296b565b8015610d625780601f10610d3757610100808354040283529160200191610d62565b820191906000526020600020905b815481529060010190602001808311610d4557829003601f168201915b505050505090506000610d73611a67565b90506000815103610d88578192505050610dcb565b600082511115610dbd578082604051602001610da5929190612e65565b60405160208183030381529060405292505050610dcb565b610dc684611a7e565b925050505b919050565b6032610ddc6007611ae6565b1115610e1d576040517f08c379a0000000000000000000000000000000000000000000000000000000008152600401610e1490612ed5565b60405180910390fd5b610e276007611af4565b6000610e336007611ae6565b90506000610e40826106ec565b90506000610e4d83610a6c565b90506000610e5a84610bc6565b90506000838383604051602001610e7393929190612ef5565b60405160208183030381529060405290506000600882604051602001610e9a92919061300a565b6040516020818303038152906040529050610ee96040518060400160405280600c81526020017f0a2d2d2d2d2d2d2d2d2d2d2d0000000000000000000000000000000000000000815250611128565b610ef281611128565b610f306040518060400160405280600c81526020017f0a2d2d2d2d2d2d2d2d2d2d2d0000000000000000000000000000000000000000815250611128565b6000610f6483610f3f84611b0a565b604051602001610f5092919061318f565b604051602081830303815290604052611b0a565b9050600081604051602001610f799190613220565b6040516020818303038152906040529050610fc86040518060400160405280600c81526020017f0a2d2d2d2d2d2d2d2d2d2d2d0000000000000000000000000000000000000000815250611128565b610fd181611128565b61100f6040518060400160405280600c81526020017f0a2d2d2d2d2d2d2d2d2d2d2d0000000000000000000000000000000000000000815250611128565b6110193389611c6d565b6110238882611c8b565b611046604051806060016040528060258152602001613aad602591398933611cf8565b7f9e9e101732de0887d722bd72c01c5439edc857c9c2c763953d67e66de12441d333896110736007611ae6565b60405161108293929190613242565b60405180910390a15050505050505050565b6000600560008473ffffffffffffffffffffffffffffffffffffffff1673ffffffffffffffffffffffffffffffffffffffff16815260200190815260200160002060008373ffffffffffffffffffffffffffffffffffffffff1673ffffffffffffffffffffffffffffffffffffffff16815260200190815260200160002060009054906101000a900460ff16905092915050565b6111be8160405160240161113c91906124e1565b6040516020818303038152906040527f41304fac000000000000000000000000000000000000000000000000000000007bffffffffffffffffffffffffffffffffffffffffffffffffffffffff19166020820180517bffffffffffffffffffffffffffffffffffffffffffffffffffffffff8381831617835250505050611d97565b50565b60007f01ffc9a7000000000000000000000000000000000000000000000000000000007bffffffffffffffffffffffffffffffffffffffffffffffffffffffff1916827bffffffffffffffffffffffffffffffffffffffffffffffffffffffff1916149050919050565b61123481611dc0565b611273576040517f08c379a000000000000000000000000000000000000000000000000000000000815260040161126a90612cd7565b60405180910390fd5b50565b600033905090565b816004600083815260200190815260200160002060006101000a81548173ffffffffffffffffffffffffffffffffffffffff021916908373ffffffffffffffffffffffffffffffffffffffff160217905550808273ffffffffffffffffffffffffffffffffffffffff166112f183610887565b73ffffffffffffffffffffffffffffffffffffffff167f8c5be1e5ebec7d5bd14f71427d1e84f3dd0314c0f7b2291e5b200ac8c7c3b92560405160405180910390a45050565b60008061134383610887565b90508073ffffffffffffffffffffffffffffffffffffffff168473ffffffffffffffffffffffffffffffffffffffff16148061138557506113848185611094565b5b806113c357508373ffffffffffffffffffffffffffffffffffffffff166113ab8461052f565b73ffffffffffffffffffffffffffffffffffffffff16145b91505092915050565b8273ffffffffffffffffffffffffffffffffffffffff166113ec82610887565b73ffffffffffffffffffffffffffffffffffffffff1614611442576040517f08c379a0000000000000000000000000000000000000000000000000000000008152600401611439906132eb565b60405180910390fd5b600073ffffffffffffffffffffffffffffffffffffffff168273ffffffffffffffffffffffffffffffffffffffff16036114b1576040517f08c379a00000000000000000000000000000000000000000000000000000000081526004016114a89061337d565b60405180910390fd5b6114be8383836001611e01565b8273ffffffffffffffffffffffffffffffffffffffff166114de82610887565b73ffffffffffffffffffffffffffffffffffffffff1614611534576040517f08c379a000000000000000000000000000000000000000000000000000000000815260040161152b906132eb565b60405180910390fd5b6004600082815260200190815260200160002060006101000a81549073ffffffffffffffffffffffffffffffffffffffff02191690556001600360008573ffffffffffffffffffffffffffffffffffffffff1673ffffffffffffffffffffffffffffffffffffffff168152602001908152602001600020600082825403925050819055506001600360008473ffffffffffffffffffffffffffffffffffffffff1673ffffffffffffffffffffffffffffffffffffffff16815260200190815260200160002060008282540192505081905550816002600083815260200190815260200160002060006101000a81548173ffffffffffffffffffffffffffffffffffffffff021916908373ffffffffffffffffffffffffffffffffffffffff160217905550808273ffffffffffffffffffffffffffffffffffffffff168473ffffffffffffffffffffffffffffffffffffffff167fddf252ad1be2c89b69c2b068fc378daa952ba7f163c4a11628f55a4df523b3ef60405160405180910390a46116c08383836001611e07565b505050565b6060600060016116d484611e0d565b01905060008167ffffffffffffffff8111156116f3576116f261274e565b5b6040519080825280601f01601f1916602001820160405280156117255781602001600182028036833780820191505090505b509050600082602001820190505b600115611788578080600190039150507f3031323334353637383961626364656600000000000000000000000000000000600a86061a8153600a858161177c5761177b612bfc565b5b04945060008503611733575b819350505050919050565b6000816040516020016117a6919061339d565b6040516020818303038152906040528051906020012060001c9050919050565b61185e82826040516024016117dc9291906133b4565b6040516020818303038152906040527fb60e72cc000000000000000000000000000000000000000000000000000000007bffffffffffffffffffffffffffffffffffffffffffffffffffffffff19166020820180517bffffffffffffffffffffffffffffffffffffffffffffffffffffffff8381831617835250505050611d97565b5050565b60006002600083815260200190815260200160002060009054906101000a900473ffffffffffffffffffffffffffffffffffffffff169050919050565b8173ffffffffffffffffffffffffffffffffffffffff168373ffffffffffffffffffffffffffffffffffffffff160361190d576040517f08c379a000000000000000000000000000000000000000000000000000000000815260040161190490613430565b60405180910390fd5b80600560008573ffffffffffffffffffffffffffffffffffffffff1673ffffffffffffffffffffffffffffffffffffffff16815260200190815260200160002060008473ffffffffffffffffffffffffffffffffffffffff1673ffffffffffffffffffffffffffffffffffffffff16815260200190815260200160002060006101000a81548160ff0219169083151502179055508173ffffffffffffffffffffffffffffffffffffffff168373ffffffffffffffffffffffffffffffffffffffff167f17307eab39ab6107e8899845ad3d59bd9653f200f220920489ca2b5937696c31836040516119fe9190612436565b60405180910390a3505050565b611a168484846113cc565b611a2284848484611f60565b611a61576040517f08c379a0000000000000000000000000000000000000000000000000000000008152600401611a58906134c2565b60405180910390fd5b50505050565b606060405180602001604052806000815250905090565b6060611a898261122b565b6000611a93611a67565b90506000815111611ab35760405180602001604052806000815250611ade565b80611abd846116c5565b604051602001611ace929190612e65565b6040516020818303038152906040525b915050919050565b600081600001549050919050565b6001816000016000828254019250508190555050565b60606000825103611b2c57604051806020016040528060008152509050611c68565b6000604051806060016040528060408152602001613ad26040913990506000600360028551611b5b9190613511565b611b659190613545565b6004611b719190613576565b67ffffffffffffffff811115611b8a57611b8961274e565b5b6040519080825280601f01601f191660200182016040528015611bbc5781602001600182028036833780820191505090505b509050600182016020820185865187015b80821015611c28576003820191508151603f8160121c168501518453600184019350603f81600c1c168501518453600184019350603f8160061c168501518453600184019350603f8116850151845360018401935050611bcd565b5050600386510660018114611c445760028114611c5757611c5f565b603d6001830353603d6002830353611c5f565b603d60018303535b50505080925050505b919050565b611c878282604051806020016040528060008152506120e7565b5050565b611c9482611dc0565b611cd3576040517f08c379a0000000000000000000000000000000000000000000000000000000008152600401611cca9061362a565b60405180910390fd5b80600660008481526020019081526020016000209081611cf391906137e1565b505050565b611d92838383604051602401611d10939291906138b3565b6040516020818303038152906040527f1c7ec448000000000000000000000000000000000000000000000000000000007bffffffffffffffffffffffffffffffffffffffffffffffffffffffff19166020820180517bffffffffffffffffffffffffffffffffffffffffffffffffffffffff8381831617835250505050611d97565b505050565b60008151905060006a636f6e736f6c652e6c6f679050602083016000808483855afa5050505050565b60008073ffffffffffffffffffffffffffffffffffffffff16611de283611862565b73ffffffffffffffffffffffffffffffffffffffff1614159050919050565b50505050565b50505050565b600080600090507a184f03e93ff9f4daa797ed6e38ed64bf6a1f0100000000000000008310611e6b577a184f03e93ff9f4daa797ed6e38ed64bf6a1f0100000000000000008381611e6157611e60612bfc565b5b0492506040810190505b6d04ee2d6d415b85acef81000000008310611ea8576d04ee2d6d415b85acef81000000008381611e9e57611e9d612bfc565b5b0492506020810190505b662386f26fc100008310611ed757662386f26fc100008381611ecd57611ecc612bfc565b5b0492506010810190505b6305f5e1008310611f00576305f5e1008381611ef657611ef5612bfc565b5b0492506008810190505b6127108310611f25576127108381611f1b57611f1a612bfc565b5b0492506004810190505b60648310611f485760648381611f3e57611f3d612bfc565b5b0492506002810190505b600a8310611f57576001810190505b80915050919050565b6000611f818473ffffffffffffffffffffffffffffffffffffffff16612142565b156120da578373ffffffffffffffffffffffffffffffffffffffff1663150b7a02611faa611276565b8786866040518563ffffffff1660e01b8152600401611fcc9493929190613946565b6020604051808303816000875af192505050801561200857506040513d601f19601f8201168201806040525081019061200591906139a7565b60015b61208a573d8060008114612038576040519150601f19603f3d011682016040523d82523d6000602084013e61203d565b606091505b506000815103612082576040517f08c379a0000000000000000000000000000000000000000000000000000000008152600401612079906134c2565b60405180910390fd5b805181602001fd5b63150b7a0260e01b7bffffffffffffffffffffffffffffffffffffffffffffffffffffffff1916817bffffffffffffffffffffffffffffffffffffffffffffffffffffffff1916149150506120df565b600190505b949350505050565b6120f18383612165565b6120fe6000848484611f60565b61213d576040517f08c379a0000000000000000000000000000000000000000000000000000000008152600401612134906134c2565b60405180910390fd5b505050565b6000808273ffffffffffffffffffffffffffffffffffffffff163b119050919050565b600073ffffffffffffffffffffffffffffffffffffffff168273ffffffffffffffffffffffffffffffffffffffff16036121d4576040517f08c379a00000000000000000000000000000000000000000000000000000000081526004016121cb90613a20565b60405180910390fd5b6121dd81611dc0565b1561221d576040517f08c379a000000000000000000000000000000000000000000000000000000000815260040161221490613a8c565b60405180910390fd5b61222b600083836001611e01565b61223481611dc0565b15612274576040517f08c379a000000000000000000000000000000000000000000000000000000000815260040161226b90613a8c565b60405180910390fd5b6001600360008473ffffffffffffffffffffffffffffffffffffffff1673ffffffffffffffffffffffffffffffffffffffff16815260200190815260200160002060008282540192505081905550816002600083815260200190815260200160002060006101000a81548173ffffffffffffffffffffffffffffffffffffffff021916908373ffffffffffffffffffffffffffffffffffffffff160217905550808273ffffffffffffffffffffffffffffffffffffffff16600073ffffffffffffffffffffffffffffffffffffffff167fddf252ad1be2c89b69c2b068fc378daa952ba7f163c4a11628f55a4df523b3ef60405160405180910390a461237e600083836001611e07565b5050565b6000604051905090565b600080fd5b600080fd5b60007fffffffff0000000000000000000000000000000000000000000000000000000082169050919050565b6123cb81612396565b81146123d657600080fd5b50565b6000813590506123e8816123c2565b92915050565b6000602082840312156124045761240361238c565b5b6000612412848285016123d9565b91505092915050565b60008115159050919050565b6124308161241b565b82525050565b600060208201905061244b6000830184612427565b92915050565b600081519050919050565b600082825260208201905092915050565b60005b8381101561248b578082015181840152602081019050612470565b60008484015250505050565b6000601f19601f8301169050919050565b60006124b382612451565b6124bd818561245c565b93506124cd81856020860161246d565b6124d681612497565b840191505092915050565b600060208201905081810360008301526124fb81846124a8565b905092915050565b6000819050919050565b61251681612503565b811461252157600080fd5b50565b6000813590506125338161250d565b92915050565b60006020828403121561254f5761254e61238c565b5b600061255d84828501612524565b91505092915050565b600073ffffffffffffffffffffffffffffffffffffffff82169050919050565b600061259182612566565b9050919050565b6125a181612586565b82525050565b60006020820190506125bc6000830184612598565b92915050565b6125cb81612586565b81146125d657600080fd5b50565b6000813590506125e8816125c2565b92915050565b600080604083850312156126055761260461238c565b5b6000612613858286016125d9565b925050602061262485828601612524565b9150509250929050565b6000806000606084860312156126475761264661238c565b5b6000612655868287016125d9565b9350506020612666868287016125d9565b925050604061267786828701612524565b9150509250925092565b61268a81612503565b82525050565b60006020820190506126a56000830184612681565b92915050565b6000602082840312156126c1576126c061238c565b5b60006126cf848285016125d9565b91505092915050565b6126e18161241b565b81146126ec57600080fd5b50565b6000813590506126fe816126d8565b92915050565b6000806040838503121561271b5761271a61238c565b5b6000612729858286016125d9565b925050602061273a858286016126ef565b9150509250929050565b600080fd5b600080fd5b7f4e487b7100000000000000000000000000000000000000000000000000000000600052604160045260246000fd5b61278682612497565b810181811067ffffffffffffffff821117156127a5576127a461274e565b5b80604052505050565b60006127b8612382565b90506127c4828261277d565b919050565b600067ffffffffffffffff8211156127e4576127e361274e565b5b6127ed82612497565b9050602081019050919050565b82818337600083830152505050565b600061281c612817846127c9565b6127ae565b90508281526020810184848401111561283857612837612749565b5b6128438482856127fa565b509392505050565b600082601f8301126128605761285f612744565b5b8135612870848260208601612809565b91505092915050565b600080600080608085870312156128935761289261238c565b5b60006128a1878288016125d9565b94505060206128b2878288016125d9565b93505060406128c387828801612524565b925050606085013567ffffffffffffffff8111156128e4576128e3612391565b5b6128f08782880161284b565b91505092959194509250565b600080604083850312156129135761291261238c565b5b6000612921858286016125d9565b9250506020612932858286016125d9565b9150509250929050565b7f4e487b7100000000000000000000000000000000000000000000000000000000600052602260045260246000fd5b6000600282049050600182168061298357607f821691505b6020821081036129965761299561293c565b5b50919050565b7f4552433732313a20617070726f76616c20746f2063757272656e74206f776e6560008201527f7200000000000000000000000000000000000000000000000000000000000000602082015250565b60006129f860218361245c565b9150612a038261299c565b604082019050919050565b60006020820190508181036000830152612a27816129eb565b9050919050565b7f4552433732313a20617070726f76652063616c6c6572206973206e6f7420746f60008201527f6b656e206f776e6572206f7220617070726f76656420666f7220616c6c000000602082015250565b6000612a8a603d8361245c565b9150612a9582612a2e565b604082019050919050565b60006020820190508181036000830152612ab981612a7d565b9050919050565b7f4552433732313a2063616c6c6572206973206e6f7420746f6b656e206f776e6560008201527f72206f7220617070726f76656400000000000000000000000000000000000000602082015250565b6000612b1c602d8361245c565b9150612b2782612ac0565b604082019050919050565b60006020820190508181036000830152612b4b81612b0f565b9050919050565b600081905092915050565b7f46495253545f574f524400000000000000000000000000000000000000000000600082015250565b6000612b93600a83612b52565b9150612b9e82612b5d565b600a82019050919050565b6000612bb482612451565b612bbe8185612b52565b9350612bce81856020860161246d565b80840191505092915050565b6000612be582612b86565b9150612bf18284612ba9565b915081905092915050565b7f4e487b7100000000000000000000000000000000000000000000000000000000600052601260045260246000fd5b6000612c3682612503565b9150612c4183612503565b925082612c5157612c50612bfc565b5b828206905092915050565b7f4e487b7100000000000000000000000000000000000000000000000000000000600052603260045260246000fd5b7f4552433732313a20696e76616c696420746f6b656e2049440000000000000000600082015250565b6000612cc160188361245c565b9150612ccc82612c8b565b602082019050919050565b60006020820190508181036000830152612cf081612cb4565b9050919050565b7f4552433732313a2061646472657373207a65726f206973206e6f74206120766160008201527f6c6964206f776e65720000000000000000000000000000000000000000000000602082015250565b6000612d5360298361245c565b9150612d5e82612cf7565b604082019050919050565b60006020820190508181036000830152612d8281612d46565b9050919050565b7f5345434f4e445f574f5244000000000000000000000000000000000000000000600082015250565b6000612dbf600b83612b52565b9150612dca82612d89565b600b82019050919050565b6000612de082612db2565b9150612dec8284612ba9565b915081905092915050565b7f54484952445f574f524400000000000000000000000000000000000000000000600082015250565b6000612e2d600a83612b52565b9150612e3882612df7565b600a82019050919050565b6000612e4e82612e20565b9150612e5a8284612ba9565b915081905092915050565b6000612e718285612ba9565b9150612e7d8284612ba9565b91508190509392505050565b7f4e4654204c696d6974204572726f720000000000000000000000000000000000600082015250565b6000612ebf600f8361245c565b9150612eca82612e89565b602082019050919050565b60006020820190508181036000830152612eee81612eb2565b9050919050565b6000612f018286612ba9565b9150612f0d8285612ba9565b9150612f198284612ba9565b9150819050949350505050565b60008190508160005260206000209050919050565b60008154612f488161296b565b612f528186612b52565b94506001821660008114612f6d5760018114612f8257612fb5565b60ff1983168652811515820286019350612fb5565b612f8b85612f26565b60005b83811015612fad57815481890152600182019150602081019050612f8e565b838801955050505b50505092915050565b7f3c2f746578743e3c2f7376673e00000000000000000000000000000000000000600082015250565b6000612ff4600d83612b52565b9150612fff82612fbe565b600d82019050919050565b60006130168285612f3b565b91506130228284612ba9565b915061302d82612fe7565b91508190509392505050565b7f7b226e616d65223a202200000000000000000000000000000000000000000000600082015250565b600061306f600a83612b52565b915061307a82613039565b600a82019050919050565b7f222c20226465736372697074696f6e223a20224120686967686c79206163636c60008201527f61696d656420636f6c6c656374696f6e206f6620737175617265732e222c202260208201527f696d616765223a2022646174613a696d6167652f7376672b786d6c3b6261736560408201527f36342c0000000000000000000000000000000000000000000000000000000000606082015250565b600061312d606383612b52565b915061313882613085565b606382019050919050565b7f227d000000000000000000000000000000000000000000000000000000000000600082015250565b6000613179600283612b52565b915061318482613143565b600282019050919050565b600061319a82613062565b91506131a68285612ba9565b91506131b182613120565b91506131bd8284612ba9565b91506131c88261316c565b91508190509392505050565b7f646174613a6170706c69636174696f6e2f6a736f6e3b6261736536342c000000600082015250565b600061320a601d83612b52565b9150613215826131d4565b601d82019050919050565b600061322b826131fd565b91506132378284612ba9565b915081905092915050565b60006060820190506132576000830186612598565b6132646020830185612681565b6132716040830184612681565b949350505050565b7f4552433732313a207472616e736665722066726f6d20696e636f72726563742060008201527f6f776e6572000000000000000000000000000000000000000000000000000000602082015250565b60006132d560258361245c565b91506132e082613279565b604082019050919050565b60006020820190508181036000830152613304816132c8565b9050919050565b7f4552433732313a207472616e7366657220746f20746865207a65726f2061646460008201527f7265737300000000000000000000000000000000000000000000000000000000602082015250565b600061336760248361245c565b91506133728261330b565b604082019050919050565b600060208201905081810360008301526133968161335a565b9050919050565b60006133a98284612ba9565b915081905092915050565b600060408201905081810360008301526133ce81856124a8565b90506133dd6020830184612681565b9392505050565b7f4552433732313a20617070726f766520746f2063616c6c657200000000000000600082015250565b600061341a60198361245c565b9150613425826133e4565b602082019050919050565b600060208201905081810360008301526134498161340d565b9050919050565b7f4552433732313a207472616e7366657220746f206e6f6e20455243373231526560008201527f63656976657220696d706c656d656e7465720000000000000000000000000000602082015250565b60006134ac60328361245c565b91506134b782613450565b604082019050919050565b600060208201905081810360008301526134db8161349f565b9050919050565b7f4e487b7100000000000000000000000000000000000000000000000000000000600052601160045260246000fd5b600061351c82612503565b915061352783612503565b925082820190508082111561353f5761353e6134e2565b5b92915050565b600061355082612503565b915061355b83612503565b92508261356b5761356a612bfc565b5b828204905092915050565b600061358182612503565b915061358c83612503565b925082820261359a81612503565b915082820484148315176135b1576135b06134e2565b5b5092915050565b7f45524337323155524953746f726167653a2055524920736574206f66206e6f6e60008201527f6578697374656e7420746f6b656e000000000000000000000000000000000000602082015250565b6000613614602e8361245c565b915061361f826135b8565b604082019050919050565b6000602082019050818103600083015261364381613607565b9050919050565b60006020601f8301049050919050565b600082821b905092915050565b6000600883026136977fffffffffffffffffffffffffffffffffffffffffffffffffffffffffffffffff8261365a565b6136a1868361365a565b95508019841693508086168417925050509392505050565b6000819050919050565b60006136de6136d96136d484612503565b6136b9565b612503565b9050919050565b6000819050919050565b6136f8836136c3565b61370c613704826136e5565b848454613667565b825550505050565b600090565b613721613714565b61372c8184846136ef565b505050565b5b8181101561375057613745600082613719565b600181019050613732565b5050565b601f8211156137955761376681612f26565b61376f8461364a565b8101602085101561377e578190505b61379261378a8561364a565b830182613731565b50505b505050565b600082821c905092915050565b60006137b86000198460080261379a565b1980831691505092915050565b60006137d183836137a7565b9150826002028217905092915050565b6137ea82612451565b67ffffffffffffffff8111156138035761380261274e565b5b61380d825461296b565b613818828285613754565b600060209050601f83116001811461384b5760008415613839578287015190505b61384385826137c5565b8655506138ab565b601f19841661385986612f26565b60005b828110156138815784890151825560018201915060208501945060208101905061385c565b8683101561389e578489015161389a601f8916826137a7565b8355505b6001600288020188555050505b505050505050565b600060608201905081810360008301526138cd81866124a8565b90506138dc6020830185612681565b6138e96040830184612598565b949350505050565b600081519050919050565b600082825260208201905092915050565b6000613918826138f1565b61392281856138fc565b935061393281856020860161246d565b61393b81612497565b840191505092915050565b600060808201905061395b6000830187612598565b6139686020830186612598565b6139756040830185612681565b8181036060830152613987818461390d565b905095945050505050565b6000815190506139a1816123c2565b92915050565b6000602082840312156139bd576139bc61238c565b5b60006139cb84828501613992565b91505092915050565b7f4552433732313a206d696e7420746f20746865207a65726f2061646472657373600082015250565b6000613a0a60208361245c565b9150613a15826139d4565b602082019050919050565b60006020820190508181036000830152613a39816139fd565b9050919050565b7f4552433732313a20746f6b656e20616c7265616479206d696e74656400000000600082015250565b6000613a76601c8361245c565b9150613a8182613a40565b602082019050919050565b60006020820190508181036000830152613aa581613a69565b905091905056fe416e204e465420772f20494420257320686173206265656e206d696e74656420746f2025734142434445464748494a4b4c4d4e4f505152535455565758595a6162636465666768696a6b6c6d6e6f707172737475767778797a303132333435363738392b2fa264697066735822122033c2a5931f2d0dffdb896494b0cd72f5356f3fec932d2f93a3e942fd2b95d0e064736f6c634300081200333c73766720786d6c6e733d27687474703a2f2f7777772e77332e6f72672f323030302f73766727207072657365727665417370656374526174696f3d27784d696e594d696e206d656574272076696577426f783d273020302033353020333530273e3c7374796c653e2e62617365207b2066696c6c3a2077686974653b20666f6e742d66616d696c793a2073657269663b20666f6e742d73697a653a20323470783b207d3c2f7374796c653e3c726563742077696474683d273130302527206865696768743d2731303025272066696c6c3d27626c61636b27202f3e3c7465787420783d273530252720793d273530252720636c6173733d27626173652720646f6d696e616e742d626173656c696e653d276d6964646c652720746578742d616e63686f723d276d6964646c65273e",
  "linkReferences": {},
  "deployedLinkReferences": {}
}